:020000040800F2
:100000009096002045010008B70900087308000811
:10001000F5080008E1040008A950000800000000ED
:100020000000000000000000000000005D4F00081C
:100030004107000800000000E3010008651E0008F9
:100040005F0100085F0100085F0100085F01000810
:100050005F0100085F0100085F0100085F01000800
:100060005F0100085F0100085F0100085F010008F0
:100070005F0100085F0100085F0100085F010008E0
:100080005F0100085F0100085F0100085F010008D0
:100090005F0100085F0100085F0100085F010008C0
:1000A0005F0100085F0100085F0100085F010008B0
:1000B0005F0100085F0100085F0100085F010008A0
:1000C0005F0100085F0100085F0100085F01000890
:1000D0005F0100085F0100085F0100085F01000880
:1000E0005F0100085F0100085F0100085F01000870
:1000F0005F0100085F0100085F0100085F01000860
:100100005F0100085F0100085F0100085F0100084F
:100110005F0100085F0100085F0100085F0100083F
:100120005F0100085F0100085F0100085F0100082F
:10013000DFF80CD000F032F800480047CD5000083E
:10014000909600200648804706480047FEE7FEE7F5
:10015000FEE7FEE7FEE7FEE7FEE7FEE7FEE7FEE777
:10016000495000083101000872B6704762B6704706
:10017000EFF3108072B6704780F31088704730BF7D
:10018000704720BF7047B0FA80F0704790FAA0F037
:10019000B0FA80F0704790FAA0F07047064C074D17
:1001A00006E0E06840F0010394E807009847103447
:1001B000AC42F6D3FFF7C0FF40530008605300087D
:1001C00018484FF0FF010170002080F3098816489D
:1001D000016881F3088815484FF08051016062B6CC
:1001E000FEE772B6EFF3098028B1203880E8F00FFF
:1001F0000F490968086000B50E4880475DF804EBB8
:100200000D480E490A78027009480D490A680260D3
:10021000106890E8F00F203080F309884EF0040E4B
:1002200062B6704722ED00E00C01002004ED00E012
:1002300004010020191C00089200002093000020F7
:100240000801002008B532E02021194800F004FB25
:1002500020B12021164800F008FB03E020211448BB
:1002600000F005FB6A460021084601F0FFF904464C
:100270000A2C08D2601C044602466B460021084640
:1002800001F022FA0DE06B4600221146104601F003
:100290001BFA6946074801F045FA6946064801F02D
:1002A00041FA6A4600214FF47A7001F007FDCBE76E
:1002B000000C0140A00A0020680B002008B52DE0CA
:1002C0000121174800F0C8FA20B10121144800F0BC
:1002D000CCFA03E00121124800F0C9FA6A46002175
:1002E000084601F0C3F90446052C08D2601C0446F8
:1002F00002466B460021084601F0E6F909E06B462C
:1003000000221146104601F0DFF96946002001F095
:1003100053FC6A460021642001F0D0FCD0E70000C5
:10032000000C014008B52DE00221174800F094FAB6
:1003300020B10221144800F098FA03E0022112488B
:1003400000F095FA6A460021084601F08FF904464C
:10035000052C08D2601C044602466B460021084664
:1003600001F0B2F909E06B4600221146104601F097
:10037000ABF96946002001F01FFC6A4600216420A9
:1003800001F09CFCD0E70000000C014070B58AB081
:10039000064600F097F800F0A5F800F08BF8044648
:1003A0002E480068B4FBF0F5284601F07BFD00F014
:1003B000ADFA09A800F06AFE00F002F909AA0021CE
:1003C000012000F0F5FC09A8032100220592CDE9E7
:1003D00006210890052080210C22214BCDE9013215
:1003E000CDE90310022000231E4A1FA100902248DD
:1003F00000F0D6FE09A8032100220592CDE90621CE
:100400000890052080210C221C4BCDE90132CDE95A
:100410000310022000231A4A1AA100901D4800F080
:10042000BFFE09A8032100220592CDE9062108900C
:10043000052080210C22184BCDE90132CDE90310B3
:1004400002200023154A16A10090194800F0A8FECA
:1004500009A9002000F0FAFF0AB070BD9051000811
:1004600010030020450200084170705461736B4C0A
:100470006564315443420000D80900201005002073
:10048000BD0200084170705461736B4C6564325456
:1004900043420000A00A00201007002025030008A6
:1004A0004170705461736B4C656433544342000077
:1004B000680B002000B585B0684604F0E5FC0198A3
:1004C00005B000BD10B54FF4E06000F075FA00F023
:1004D000FFF92021014800F0C8F910BD000C0140CF
:1004E00000BFFEE710B500F0FBF800F003F800F0E5
:1004F000F3F810BD70B5002600201849088018498F
:1005000008801849086018490860184908601849A7
:10051000086018490860002400BFFFF729FE06465E
:1005200000BF00250BE000201049086000F074F8BF
:1005300000F08CF80D4800680444681C85B2002D5A
:10054000F1D00C48046000200849086008490860A0
:1005500000BF3046FFF710FE00BF70BD1C0000203A
:100560001E00002020000020240000202C0000207D
:10057000300000202800002001460846044A126886
:10058000904203D9024A1268801A00E000207047A6
:100590002800002070B5002500BFFFF7E9FD0546E3
:1005A00000BF0648046800BF2846FFF7E5FD00BF0E
:1005B0002046FFF7E1FF0646304670BD2C000020C4
:1005C00070B50025FFF7E6FF044600BFFFF7D0FD3A
:1005D000054600BF00200449086000BF2846FFF719
:1005E000CBFD00BF204670BD2C00002070B500255B
:1005F00000BFFFF7BDFD054600BF0648046800BF09
:100600002846FFF7B9FD00BF2046FFF7B5FF0646B5
:10061000304670BD3000002010B509480088401CED
:10062000074908800748008818B900F083F8064990
:10063000086004480088401C0249088010BD000082
:100640001C0000201E0000202000002010B50F48D4
:100650000088401E0D49088008460088A0B900F0B7
:1006600069F80B490860084600680A490968441A95
:1006700009480068A04201D20748046007480068A2
:10068000A04201D20548046010BD00001E000020F9
:1006900024000020200000202C000020300000203A
:1006A00010B5002400BF00BFFFF762FD044600BF85
:1006B000FFF7B2FF00BF1021064800F01DF900BF90
:1006C000FFF7C4FF00BF2046FFF756FD00BF00BF85
:1006D00010BD0000300C002010B5FFF7E1FF10BD89
:1006E00010B500200249086000F00AF810BD0000B3
:1006F0001800002001490860704700001800002021
:1007000010B50A48006840F0807008490860002071
:10071000074948600846006840F001000860FFF79C
:10072000C9FE04462046FFF7E5FF10BDFCED00E0E2
:10073000001000E00148406870470000001000E031
:1007400070472DE9F04102460025002600200023D5
:100750000024002791F803C00CF00F0591F803C0A6
:100760000CF0100CBCF1000F03D091F802C04CEA61
:10077000050591F800C0BCF1000F31D014680020CD
:100780002BE04FF0010C0CFA00F3B1F800C00CEABA
:1007900003069E4220D183004FF00F0C0CFA03F7A2
:1007A000BC4305FA03FC4CEA040491F803C0BCF115
:1007B000280F06D14FF0010C0CFA00FCC2F814C04F
:1007C0000AE091F803C0BCF1480F05D14FF0010CCD
:1007D0000CFA00FCC2F810C0401C0828D1D31460E9
:1007E000B1F800C0BCF1FF0F34DD546800202EE0EA
:1007F00000F1080C4FF0010808FA0CF3B1F800C042
:100800000CEA03069E4221D183004FF00F0C0CFA34
:1008100003F7BC4305FA03FC4CEA040491F803C057
:10082000BCF1280F05D100F1080C08FA0CF8C2F849
:10083000148091F803C0BCF1480F07D100F1080CF7
:100840004FF0010808FA0CF8C2F81080401C082884
:10085000CED35460BDE8F08102460020D3680B403F
:100860000BB1012000E00020704741617047016139
:10087000704700BFFEE7000008B50121082004F022
:10088000F3FA2020ADF8000010208DF803000320BB
:100890008DF8020069460D48FFF753FF012108203B
:1008A00004F0E2FA0120ADF8000069460748FFF7BE
:1008B00048FF0121082004F0D7FA0220ADF800001B
:1008C00069460248FFF73DFF08BD0000000C0140EB
:1008D00010B5FFF7D1FF20210548FFF7C8FF012120
:1008E0000348FFF7C4FF02210148FFF7C0FF10BD16
:1008F000000C014000BFFEE730B505460C4622461D
:100900000021284600F026F830BD00000D480E49B1
:1009100001600146416000218160C1600161416167
:100920008161C16101620163C16241620749816302
:10093000C1634FF4D841016441640146044A116027
:1009400070470000400C002048454150880C0020B2
:10095000340000202DE9F04103460C4617460FB93C
:10096000BDE8F08103B9FBE70025002202E02D027B
:100970002543521C042AFAD3384603F0030C1946C7
:10098000BCF1000F08D0624603E001F8014B401EA5
:10099000521C08B1042AF8D30E4601E020C6001FFD
:1009A0000428FBD2314602E001F8014B401E00282A
:1009B000FAD100BFD4E7704702490143024A1160EF
:1009C000704700000000FA050CED00E070470000E1
:1009D00010B50348006810B101480068804710BD99
:1009E0004800002070B5044600F0C2F800204849D5
:1009F00008704849087048490870484908604849E3
:100A000008604849087048490870484908704849D2
:100A100008604849086048490860484908704848E3
:100A200000680A21B0FBF1F04649086046480068BA
:100A300058B14648056845B14348066803E0761E4C
:100A4000002028602D1D002EF9D1002040490860AB
:100A500040490860404908604049086040490860D2
:100A600040490860404908604049087002F0ACF90C
:100A700002F0AAFA204601F007FB208800B170BD01
:100A8000204601F021FF208800B1F8E7204601F060
:100A900027FF208800B1F2E7204602F00BF82088FB
:100AA00000B1ECE7204602F0BFF9208800B1E6E78C
:100AB000204602F00FFC208800B1E0E7204602F05B
:100AC00079FF208800B1DAE7204601F069FE20882E
:100AD00000B1D4E7204601F073FC208800B1CEE7D6
:100AE000204603F0CFFF208800B1C8E7204602F07F
:100AF000A5FE208800B1C2E7204604F01FF8208838
:100B000000B1BCE701F0E6F9FFF760FF00BFB6E710
:100B10005C00002064000020AC00002004010020E4
:100B20000801002092000020930000209400002083
:100B3000A0000020A4000020A8000020B400002095
:100B400090510008B0000020605100085C5100087E
:100B50003C0000204000002044000020480000200D
:100B60004C0000205000002054000020E200002033
:100B70000A4A1168002002E0002204C1401C084A11
:100B800012689042F8D3054A1268054B1B6802EBC5
:100B90008302121F034B1A60704700005C5100086B
:100BA000605100080C01002010B500242E48007888
:100BB000012800D010BD00BFFFF7DAFA044600BFDD
:100BC0002A48007828B900BF2046FFF7D5FA00BFB1
:100BD000F0E726480078401E24490870084600784F
:100BE000002805DD00BF2046FFF7C6FA00BFE1E799
:100BF0001F480078002805DD00BF2046FFF7BCFA3B
:100C000000BFD7E702F0CCF81A4908700846007810
:100C100000EB4000184951F82000184908600846C8
:100C2000006817490968884205D100BF2046FFF7D0
:100C3000A3FA00BFBEE711480068D0F89000401C3E
:100C40000E490968C1F890000E480068401C0D4923
:100C500008604FF080500C49086000BF2046FFF745
:100C60008BFA00BF00BFA5E7640000205C000020F5
:100C7000AC00002093000020B48E0020080100206A
:100C800004010020D800002004ED00E010B500248D
:100C900020480078002800DD10BD1F48007800289B
:100CA00000DDF9E700BFFFF763FA044600BF02F07A
:100CB00077F81A4908700846007800EB4000184998
:100CC00051F820001749086008460068164909686D
:100CD000884205D100BF2046FFF74EFA00BFDBE790
:100CE00010480068D0F89000401C0E490968C1F80F
:100CF00090000E480068401C0C4908604FF080507E
:100D00000B49086000BF2046FFF736FA00BF00BF5E
:100D1000C2E700005C000020AC000020930000202F
:100D2000B48E00200801002004010020D80000201B
:100D300004ED00E070B5044600251A48007800284C
:100D400003DD46F66250208070BD17480078012808
:100D500003D045F689602080F6E714480078FA2829
:100D600003DB45F209202080EEE700BF00BFFFF75C
:100D7000FFF9054600BFFFF74FFC00BF0B480078A6
:100D8000401C0A49087002F003FA00BFFFF75EFC3E
:100D900000BF2846FFF7F0F900BF00BF0020208009
:100DA00000BFD1E75C00002064000020AC00002000
:100DB0002DE9F04105460C461646002700BF00BF4E
:100DC000FFF7D6F9074600BFFFF726FC00BF012D4D
:100DD00003D000200E49087002E001200C49087081
:100DE00014B10C48046006E00B4800680A21B0FB0F
:100DF000F1F00849086000BFFFF728FC00BF384643
:100E0000FFF7BAF900BF00BF00203080BDE8F081D5
:100E1000B4000020B00000209051000870B50446D6
:100E2000002523480078002803DD46F66550208021
:100E300070BD20480078012803D045F689602080E5
:100E4000F6E71D48007818B946F664502080EFE7B1
:100E500000BF00BFFFF78CF9054600BFFFF7DCFBC2
:100E600000BF15480078401E1349087008460078F6
:100E700000280CDD00BFFFF7E9FB00BF2846FFF7A5
:100E80007BF900BF00BF46F663502080D0E702F038
:100E90008DF900BFFFF7DAFB00BF2846FFF76CF9BA
:100EA00000BF00BFFFF7F2FE0020208000BFBFE7B9
:100EB0005C00002064000020AC00002010B5044657
:100EC00012480078E8B901F06BFF11490870084634
:100ED0000078104908700E48007800EB40000E4979
:100EE00051F820000D490860084600680C49086068
:100EF000012006490870FFF763F943F69920208026
:100F000002E045F68A60208010BD000064000020E9
:100F10009300002092000020B48E002008010020E1
:100F2000040100202DE9F04107464FF0000800BF02
:100F300000BFFFF71DF9804600BFFFF76DFB00BF44
:100F400000204749086047490880474908804749C9
:100F500008604749086047490860474908604749B1
:100F600008604749088100BFFFF770FB00BF40469B
:100F7000FFF702F900BF00BF00BF00BFFFF7F8F89E
:100F8000804600BFFFF748FB00BF3E48046800BF33
:100F9000FFF75CFB00BF4046FFF7EEF800BF00BF65
:100FA00026E000BF00BFFFF7E3F8804600BFFFF771
:100FB00033FB00BF00207834E063206420602063AE
:100FC000A061A082E0826062A062FFF7B3FB2062B2
:100FD000783C04F164060020B081D4F8C04000BF22
:100FE000FFF734FB00BF4046FFF7C6F800BF00BF65
:100FF000002CD6D100BF00BFFFF7BAF8804600BF73
:10100000FFF70AFB00BF2048056800BFFFF71EFB83
:1010100000BF4046FFF7B0F800BF00BF16E000BFBA
:1010200000BFFFF7A5F8804600BFFFF7F5FA00BF45
:1010300005F120060020B081AD6900BFFFF706FB77
:1010400000BF4046FFF798F800BF00BF002DE6D173
:1010500003F0E0FB03F06EFE00203880BDE8F08175
:101060007800002072000020C2000020D400002080
:10107000E8000020F400002060000020A400002010
:10108000A88E0020DC00002098000020F8B504465F
:1010900000266946364800F08FFDBDF8000018B103
:1010A000BDF800002080F8BD6A460021022000F053
:1010B00005FEBDF8000018B1BDF800002080F2E781
:1010C00000BF00BFFFF754F8064600BFFFF7A4FAC1
:1010D00000BF00202749086000BFFFF7B7FA00BF34
:1010E0003046FFF749F800BF00BF002522480068DE
:1010F00022490968884205D91F4800681F490968C4
:10110000B0FBF1F525B91C4800680A21B0FBF1F5E8
:101110006A460021284600F0D1FD6946144800F0D7
:1011200001FBBDF8000018B1BDF800002080BAE74F
:1011300000BF00BFFFF71CF8064600BFFFF76CFAC0
:1011400000BF00200E4908600A4800680D49086089
:1011500001200D49087000BFFFF778FA00BF304644
:10116000FFF70AF800BF00BF0020208000BF9AE709
:10117000C4910020C400002090510008785100085C
:10118000D4000020C8000020D000002010B5034883
:10119000006810B101480068804710BD4C00002075
:1011A0002DE9FF4F87B004469046DDE91BA5DDE938
:1011B0001496179F0020039095480078002805DDBD
:1011C00047F24A1028800BB0BDE8F08F1CB947F2F7
:1011D000AD102880F7E7B8F1000F03D147F24F10A8
:1011E0002880F0E71EB946F62F602880EBE7894893
:1011F0000068874203D246F630602880E3E71698FD
:10120000B84203D346F631602880DCE7B9F1200FFD
:1012100003D346F273202880D5E7B9F1000F06D139
:101220007D48844203D046F273202880CBE7B9F191
:101230001F0F06D17948844203D046F273202880DC
:10124000C1E7204602F0C6FB002028800AF001001A
:1012500090B10AF0020078B105960020069008E0EF
:101260000021059801600598001D05900698401C16
:1012700006900698B842F3D3169806EB80000490C7
:10128000CDE9007A32464046049B0A9900F034FCCE
:101290000590C4F828800A98E0620898206284F8D3
:1012A0003790059820600498A06019986065199897
:1012B00018B95B480068A06501E01998A0651A9804
:1012C00060606662A763A4F83CA04FF0000B08E0E2
:1012D000002104F17C0040F82B100BF1010000F01C
:1012E000FF0BBBF1000FF3D004F16400189901F07B
:1012F00057FB204600F09EF800BF00BF00BFFEF77E
:1013000037FF039000BFFFF787F900BF454800781B
:10131000401C4449087008460078012801D101F0BA
:1013200037FF00BFFFF792F900BF0398FEF724FFD5
:1013300000BF00BF00BF94F8370001F051FD204608
:1013400001F08AFE204602F0FBFA37480088401C74
:101350003549088035480078012837D000BF00BFE4
:1013600000BFFEF705FF039000BFFFF755F900BF70
:101370002C480078401E2B49087008460078D0B9E8
:1013800001F014FF2A48008800280BDD00BFFFF79A
:101390005DF900BF0398FEF7EFFE00BF00BF01F04C
:1013A000C9FE11E000BFFFF751F900BF0398FEF737
:1013B000E3FE00BF08E000BFFFF748F900BF039855
:1013C000FEF7DAFE00BF00BF00BFFCE600BF00BFB3
:1013D00000BFFEF7CDFE039000BFFFF71DF900BF71
:1013E00010480078401E0F4908700846007808B978
:1013F00001F0DCFE00BFFFF729F900BF0398FEF7FC
:10140000BBFE00BF00BF00BFFFF740FC00BFDAE635
:101410005C0000208C510008E08D0020188D002019
:10142000B0000020AC000020E0000020640000209C
:101430007000002010B504460348006818B120462B
:1014400001490968884710BD3C00002070B504467A
:101450000D46002678480078002803DD47F24E103C
:10146000288070BD7548844203D147F24C10288013
:10147000F7E77348844203D147F24D102880F0E724
:101480009CB900BF00BFFEF773FE064600BFFFF722
:10149000C3F800BF6B48046800BFFFF7D7F800BF70
:1014A0003046FEF769FE00BF00BF00BF00BF00BFAF
:1014B000FEF75EFE064600BFFFF7AEF800BF6248CB
:1014C0000078401C6049087008460078012801D166
:1014D00001F05EFE00BFFFF7B9F800BF3046FEF72F
:1014E0004BFE00BF00BF00BF94F8360008282DD285
:1014F000DFE800F004090E10080A0F11204601F081
:10150000EBFD5EE05DE000BF204603F067F958E0C8
:1015100000BF00BF00BF204603F060F994F834001C
:10152000082810D2DFE800F004070508090A0B06B6
:1015300000BF00BF08E000BF00BF00BF00BF2046E3
:1015400001F07FFB00E000BF00BF3AE000BF00BF3A
:1015500000BFFEF70DFE064600BFFFF75DF800BFB7
:1015600039480078401E3849087008460078D0B9DC
:1015700001F01CFE3548008800280BDD00BFFFF796
:1015800065F800BF3046FEF7F7FD00BF00BF01F071
:10159000D1FD11E000BFFFF759F800BF3046FEF75C
:1015A000EBFD00BF08E000BFFFF750F800BF30467A
:1015B000FEF7E2FD00BF00BF00BF46F62D602880A9
:1015C0004FE700BF04F1640001F0C8F9204600F0C5
:1015D00041F8204602F0CCF91D480088401E1C4905
:1015E0000880204602F0F6F9FF2084F8360000BF9C
:1015F00000BF00BFFEF7BCFD064600BFFFF70CF8BA
:1016000000BF11480078401E0F4908700846007856
:1016100008B901F0CBFD00BFFFF718F800BF304656
:10162000FEF7AAFD00BF00BF00BF00202880FFF723
:101630002DFB00BF15E700005C000020188D002086
:10164000E08D002004010020AC000020700000208C
:10165000E000002010B504460348006818B1204699
:1016600001490968884710BD400000202DE9F0417C
:1016700004460D4616464FF000082DB146F6791087
:1016800030800020BDE8F08100BF00BFFEF770FD94
:10169000804600BFFEF7C0FF00BF0CB909480468D0
:1016A00004F17C0050F8257000BFFEF7CFFF00BFAB
:1016B0004046FEF761FD00BF00BF00203080384685
:1016C000E0E70000040100202DE9F04104460D464A
:1016D00017461E464FF0000825B146F679103080B7
:1016E000BDE8F08100BF00BFFEF742FD804600BFAD
:1016F000FEF792FF00BF0CB90948046804F17C00B2
:1017000040F8257000BFFEF7A1FF00BF4046FEF77E
:1017100033FD00BF00BF0020308000BFE0E70000C5
:10172000040100207FB504460D46002600BF00BF1F
:10173000FEF71EFD064600BFFEF76EFF00BF1CB1A0
:101740001748006884420CD100BFFEF77FFF00BF3E
:101750003046FEF711FD00BF00BF47F2571028804A
:101760007FBD00BFFEF772FF00BF3046FEF704FDED
:1017700000BF00BF0B48007800280BDD0020009060
:101780000190034602462146CDE90205064800F0D5
:101790004FFEE5E72946204602F0C8FA00BFDFE722
:1017A000040100205C0000205452455310B504464B
:1017B0000348006818B1204601490968884710BDF0
:1017C000440000202DE9F04780460E4614461D4691
:1017D0004FF000098C480078002805DD46F2AE1075
:1017E00028800020BDE8F0871EB1B6F5004F02D179
:1017F00000E000BF04E045F6256028800020F1E706
:1018000000BF0CB10020206000BF00BFFEF7B0FC9D
:10181000814600BFFEF700FF00BF7C480068406CB7
:10182000B8B37A480068406C401E7849096848643B
:1018300076480068476C1CB174480068006C2060F2
:10184000FEF778FF71490968096C401A6F49096809
:10185000C1F8A4006D480068D0F8A8006B49096879
:10186000D1F8A410884207D268480068D0F8A400D4
:1018700066490968C1F8A80000BFFEF7E7FE00BF8F
:101880004846FEF779FC00BF00BF0020288038469C
:10189000A8E7FFE706F4004068B100BFFEF7D6FEF8
:1018A00000BF4846FEF768FC00BF00BF46F2B0101C
:1018B0002880002096E75648007800280DDD00BFFC
:1018C000FEF7C4FE00BF4846FEF756FC00BF00BF4F
:1018D00046F663502880002084E700BF4C4800781B
:1018E000401C4B49087008460078012801D101F0DE
:1018F0004FFC00BFFEF7AAFE00BF4846FEF73CFCC7
:1019000000BF00BF00BF434607220021084601F088
:10191000DDF800BF00BF00BFFEF72AFC814600BF14
:10192000FEF77AFE00BF3A480078401E384908703A
:101930000846007808B901F039FC00BFFEF786FEC2
:1019400000BF4846FEF718FC00BF00BF00BFFFF70E
:101950009DF900BF00BFFEF70BFC814600BFFEF7FC
:101960005BFE00BF2948006890F8350020B10128CF
:1019700026D0032834D12CE0FCB124480068006C48
:101980002060FEF7D7FE21490968096C401A1F49FB
:101990000968C1F8A4001D480068D0F8A8001B49D8
:1019A0000968D1F8A410884207D218480068D0F816
:1019B000A40016490968C1F8A8000020288013E097
:1019C0001CB112480068006C206046F2A910288003
:1019D0000AE00CB10020206047F2D920288003E003
:1019E00046F62E60288000BF00BF08480068476C9C
:1019F00000BFFEF72BFE00BF4846FEF7BDFB00BF51
:101A000000BF3846EEE600005C0000200401002024
:101A1000AC0000202DE9F04705460E4617461C464F
:101A20004FF0000A32480078002804DD47F25910D0
:101A30002080BDE8F0871EB946F2D5202080F8E767
:101A40001FB946F2D5202080F3E700BF00BFFEF7A4
:101A50008FFB824600BFFEF7DFFD00BF0DB92548B2
:101A60000568286878B900BFFEF7F0FD00BF504652
:101A7000FEF782FB00BF00BF00203060386047F2F5
:101A800052102080D5E795F83C0000F0010078B9AD
:101A900000BFFEF7DBFD00BF5046FEF76DFB00BF49
:101AA00000BF00203060386047F254102080C0E74B
:101AB00000BFFEF7CBFD00BF5046FEF75DFB00BF49
:101AC00000BF4FF00008D5F8249003E009F10409A5
:101AD00008F10108D9F800000028F7D0C6F8008006
:101AE000A86BA0EB080038600020208000BFA0E7B2
:101AF0005C00002004010020F0B50446DDE9055635
:101B000002EB85004FF0807C071F3846C7F800C005
:101B1000071F38463C60DFF89CC0071F3846C7F8EF
:101B200000C04FF0123C071F3846C7F800C04FF006
:101B3000033C071F3846C7F800C04FF0023C071FA0
:101B40003846C7F800C0071F38463B60071F3846B5
:101B500039604FF0113C071F3846C7F800C04FF0FE
:101B6000103C071F3846C7F800C04FF0093C071F5C
:101B70003846C7F800C04FF0083C071F3846C7F882
:101B800000C04FF0073C071F3846C7F800C04FF0B1
:101B9000063C071F3846C7F800C04FF0053C071F3A
:101BA0003846C7F800C04FF0043C071F3846C7F856
:101BB00000C0F0BDA93E00087FB505460C4612489E
:101BC000854203D147F25B1020807FBD0F488542DC
:101BD00003D147F25C102080F7E70D480078002819
:101BE0000BDD002000900190034602462946CDE916
:101BF0000204084800F01CFCE7E72146284602F0F2
:101C000033FC00BFE1E70000188D0020E08D0020CC
:101C10005C0000205453555370B52448006810B13F
:101C2000224800688047FEF785FD0446204800688A
:101C300020490968884215D01D480068D0F89800EE
:101C4000201A1B490968C1F8940019480068D0F8A7
:101C50009C0017490968D1F8941008441449096890
:101C6000C1F89C0013480068C0F89840FEF7A8FC33
:101C700005460F480068D0F8B400A84203D20C48CB
:101C80000068C0F8B4500A480068D0F8B8000A49A3
:101C90000968884205D20848006805490968C1F802
:101CA000B80000200449086070BD0000500000200A
:101CB0000401002008010020A80000202DE9F041C7
:101CC00005460E46144600274D480078002804DDDE
:101CD00047F275202080BDE8F0814A48007800284E
:101CE00003DD46F663502080F5E736B1022E05D0BD
:101CF000042E0AD0082E09D101E000BF00BF1DB993
:101D000047F27E202080E6E704E003E045F6256008
:101D10002080E0E700BF00BF00BF00BFFEF728FA49
:101D2000074600BFFEF778FC00BF36480078401C2D
:101D30003449087008460078012801D101F028FADA
:101D400000BFFEF783FC00BF3846FEF715FA00BF60
:101D500000BF00BF01202C49096881F836002346E6
:101D6000324629462848006802F05AFC2088F0B123
:101D700000BF00BF00BFFEF7FBF9074600BFFEF73C
:101D80004BFC00BF1F480078401E1E4908700846E3
:101D9000007808B901F00AFA00BFFEF757FC00BF4F
:101DA0003846FEF7E9F900BF00BF00BF93E71648C9
:101DB000006801F091F900BF00BF00BFFEF7D8F93D
:101DC000074600BFFEF728FC00BF0E480078401E03
:101DD0000C4908700846007808B901F0E7F900BF1F
:101DE000FEF734FC00BF3846FEF7C6F900BF00BF5F
:101DF00000BFFEF74BFF0020208000BF6BE7000014
:101E00005C000020AC0000200401002010B586B06A
:101E100000F01EF8FEF78EFC044605A80021009194
:101E2000CDE9011403900748007800EB4000064A12
:101E300002EB800100231A46044800F0F9FA06B0CC
:101E400010BD000092000020B48E00205449434B86
:101E500010B50348006810B101480068804710BD04
:101E60005400002010B5002400BF00BFFEF780F929
:101E7000044600BFFEF7D0FB00BF09480078401CB5
:101E80000749087000BFFEF7E1FB00BF2046FEF7E0
:101E900073F900BF00BFFFF7B9FFFEF785FE10BD65
:101EA0005C00002001464A1E4FF0E0235A61084AB8
:101EB000106820F07F4000BF10601A46126942F09F
:101EC00005021A611A46126942F002021A6170474D
:101ED00020ED00E0254A2649264A274A2749284A74
:101EE0002848294A294A2A4A2A4A2B482B482C485A
:101EF0002C4A2D482D4A2E482E4A2F482F4830482C
:101F00003048314A314A324A3248334A334A3448F7
:101F1000344835483548364836483748374A384ACD
:101F2000384A394A39483A483A483B4A3B4A3C4A97
:101F30003C483D483D483E493E483F4A3F4A404A6A
:101F4000404A414A414A424A4248434A434A444835
:101F50004448454A454A4648464A474A4748484809
:101F6000484800BF00BF00BF70470000D4510008C0
:101F70003C530008D5510008D6510008D85100083C
:101F8000DC510008E0510008DD510008085200084B
:101F9000095200080A5200080C5200080E520008AC
:101FA000105200081252000814520008345200085F
:101FB00036520008385200083A5200083C520008D5
:101FC0003E520008405200086C5200086D52000852
:101FD0006E520008705200087252000873520008D6
:101FE0007452000876520008785200087A520008AD
:101FF0007C5200087E52000880520008B05200084F
:10200000B1520008B2520008B3520008B45200089E
:10201000B6520008B8520008E0520008E152000829
:10202000E2520008E3520008E4520008E6520008B9
:10203000E8520008EC520008ED520008EE52000889
:10204000EF520008F0520008F1520008F252000866
:10205000F3520008F4520008F6520008F752000844
:10206000F8520008FA520008FC520008FD5200081D
:102070000053000834530008355300083653000855
:10208000385300083A5300080021034A1160034AFC
:1020900011800180704700007C000020800000203B
:1020A0002DE9F04F85B00446894692469B46DDF8FF
:1020B00038800020009000BF00BFFEF759F8009064
:1020C00000BFFEF7A9FA00BFBAF1000F0AD0BAF1BB
:1020D000010F0DD0BAF5004F05D06FF40040504409
:1020E00060B906E000BF206A40EA0900206216E0FD
:1020F00000BF206A20EA0900206210E000BFFEF75E
:10210000A5FA00BF0098FEF737F800BF00BF45F6FC
:102110002560A8F80000002005B0BDE8F08F00BFE2
:10212000C4F824B004F1080001900198008968B94E
:1021300000BFFEF78BFA00BF0098FEF71DF800BF46
:1021400000BF0020A8F80000206AE5E700BF714842
:102150000078401C6F49087008460078012801D1BA
:1021600001F016F800BFFEF771FA00BF0098FEF705
:1021700003F800BF00BF00BF01980768BD6889E091
:102180007868029095F8880000F00F00039003989B
:10219000012821D002282ED0042802D0082836D1C8
:1021A0000EE0206AD5F8801000EA0106D5F880001C
:1021B000B04204D15A463146284600F0AFF863E0F9
:1021C000206AD5F8801000EA010626B15A46314649
:1021D000284600F0A3F857E0D5F88000216A20EAED
:1021E0000106D5F88000B04204D15A46314628464F
:1021F00000F094F848E0D5F88000216A20EA010652
:1022000026B15A463146284600F088F83CE000BF27
:1022100000BF00BFFDF7ACFF009000BFFEF7FCF968
:1022200000BF3C480078401E3A49087008460078D4
:10223000D0B900F0BBFF3848008800280BDD00BF94
:10224000FEF704FA00BF0098FDF796FF00BF00BF3D
:1022500000F070FF11E000BFFEF7F8F900BF009832
:10226000FDF78AFF00BF08E000BFFEF7EFF900BFEF
:102270000098FDF781FF00BF00BF00BF43F6FF20BD
:10228000A8F80000002047E700BF029F0FB1BD681B
:1022900000E00025002D7FF473AF00BF00BF00BF3A
:1022A000FDF766FF009000BFFEF7B6F900BF1948C2
:1022B0000078401E174908700846007808B900F0F9
:1022C00075FF00BFFEF7C2F900BF0098FDF754FF8D
:1022D00000BF00BF00BF0AF4004008B9FEF7D6FCFB
:1022E00000BF00BFFDF744FF009000BFFEF794F968
:1022F00000BF206A049000BFFEF7A8F900BF009855
:10230000FDF73AFF00BF00BF0020A8F800000498C6
:1023100002E70000AC0000207000002070B5044609
:102320000E46154634342665002060702070E56046
:10233000A078343C082816D2DFE800F0040508092C
:102340000706101100BF00BF00BF0DE000BF204610
:1023500001F0DEFC002084F8360005E000BF042018
:1023600084F8360000E000BF00BF204600F069FCA2
:1023700070BD0000002400BF1DE000BF00BFFDF7DE
:10238000F7FE044600BFFEF747F900BF0A480068A1
:10239000401C0949086009480068401C074908605A
:1023A00000BFFEF753F900BF2046FDF7E5FE00BF72
:1023B00000BFFEF70DFBE0E758000020C40000203E
:1023C00010B58AB0044600200E4908600B20002199
:1023D0000591CDE90704069108460B4909680B4AA7
:1023E00012680B4B1B68CDE90132CDE903101F20A9
:1023F0000023084A08A100900C48FEF7D1FE0AB05D
:1024000010BD000058000020385100083451000869
:10241000305100087523000875432F4F532D49494B
:10242000492049646C65205461736B00188D00204D
:102430002DE9F84F04460D4616461F46DDE90BAB65
:10244000DDF82890DDF834800020009000BF00BF48
:10245000FDF78EFE009000BFFEF7DEF800BF2C48AF
:1024600000882C49098888423EDA29480088401CA7
:1024700027490880284800880988884203DA2448C8
:1024800000882549088025480068046023480068C2
:10249000856022480068C6602048006807821F489F
:1024A0000068C0F814901D480068A0F818A01B48E8
:1024B0000068C0F81CB019480068406817490860F7
:1024C000012017490881174808604860002000F083
:1024D00087FC1548007818B1134800781349087034
:1024E0000020A8F8000008E011480088401C1049AE
:1024F000088044F25360A8F8000000BFFEF7A6F879
:1025000000BF0098FDF738FE00BF00BFBDE8F88FA0
:102510007000002044510008720000206800002074
:10252000B48E0020E08D0020920000209400002056
:10253000740000203EB5594800680068584A811A66
:10254000904279D00FDC5749084400283ED05649C4
:102550000844A8B155490844002860D054490844AB
:1025600000286AD13FE053480844002850D052491F
:102570000844002862D0514908440028F1D110E0F5
:1025800002A8464D00902D68EB69444D2D682A8BBA
:10259000424D2D686969414D2D68A868FFF780FD9F
:1025A0007AE002A93D480068C0693C4DCDE90001D0
:1025B0002D682B8B394D2D682A8A384D2D68E96896
:1025C000364D2D68A86800F03BFC65E0334B1B6876
:1025D000DA69324B1B68198B304B1B68986802AB69
:1025E00000F084FE58E002A92C480068C0692B4D19
:1025F000CDE900012D682B8B284D2D682A8A274DA7
:102600002D68E968254D2D68A86801F04BFA43E074
:1026100022490968886802A901F088FB3CE01F4B49
:102620001B68DA691D4B1B68198B1C4B1B6898686B
:1026300002AB01F045FC2FE007E02CE017490968E8
:10264000886802A901F010FF26E01D49097801EB16
:1026500041011C4A02EB810000F0C6FD0F480068F2
:1026600002AB0021C269184801F02AFC1748006833
:10267000401E164908600846006858B914480068AA
:102680000860FEF757F8044602AB224600211148C5
:1026900001F016FC00E000BF00BF3EBD6C00002052
:1026A0005449434BADBAB2BE0DF90BFAF2F8F7FF3D
:1026B0000006F6FF00F7FDF700FFEFFF03FE0FFE39
:1026C00094000020B48E0020FC9000200001002027
:1026D000FC000020C4910020002700BF56E0002627
:1026E00052E000BF00BFFDF743FD074600BFFDF706
:1026F00093FF00BF2648008898B90020254908812B
:102700000860486000F07EFB00BFFDF79FFF00BF40
:102710003846FDF731FD00BF00BFFEF7B7FA0126CE
:1027200032E000BFFDF792FF00BF3846FDF724FD01
:1027300000BF00BFFDF7FEFF0546FFF7FBFEFDF7FC
:10274000F9FF441B14480068A04201D212480460FB
:1027500000BF00BFFDF70CFD074600BFFDF75CFFA3
:1027600000BF0E48006840680C49086008480088AF
:10277000401E0749088000BFFDF768FF00BF3846CC
:10278000FDF7FAFC00BF00BF002EAAD0A7E70000AB
:1027900070000020B48E0020780000206C00002023
:1027A000F0B589B0054600203149088031480068FD
:1027B00020B944F25260288009B0F0BD2E4800884C
:1027C000022803DA44F254602880F5E700202B4900
:1027D0000860284804682646203600270CE0284870
:1027E00020600020A060E06020826061208366603D
:1027F00020342036781C87B21F4800888742EEDBE1
:10280000203C1C48066866601E4806601E4806603C
:1028100000201E4908801E4908801E48006818B91B
:1028200044F255602880C7E71B4800681B490968C7
:10283000884203D244F256602880BDE7032000217D
:102840000591CDE90705069113480068144A1268FE
:10285000104B1B68CDE90301CDE9013200910B4615
:10286000104A11A11748FEF79BFC00BFA4E7000027
:1028700074000020405100084451000878000020F6
:102880004E4F4E45680000206C0000207000002074
:10289000720000204C510008545100088C5100086F
:1028A00050510008D926000875432F4F532D494930
:1028B0004920495352205175657565205461736BE9
:1028C00000000000E08D00200021034A1160034A4F
:1028D00011800180704700008400002088000020E3
:1028E00070B501461A4D2D681DB945F21E750D8053
:1028F00070BD184D2D881DB945F21D750D80F7E787
:10290000134D28682A681032124D2D886D1EACB206
:10291000002308E00260002545600581C560103095
:1029200010325D1CABB2A342F4DB002505604560AC
:102930000581C560064D2D68074E3560054D2D8813
:10294000B5800025F58035810D8000BFD0E70000FF
:102950007051000868510008A88E002010B501468B
:1029600048894B89002B17DD0A680C4B1B681360E4
:102970000A4C4B6823602346DB884C891B1B074CA1
:10298000E38023469B884C892344044CA380002386
:102990004B818B810B604B6010BD0000A88E002026
:1029A0000181002242818281026042607047000002
:1029B0002DE9F0410D46DDE90674B0F80AC0B0F823
:1029C0000880C44505DB46F2935CA4F800C0BDE86E
:1029D000F081DFF8DCC0BCF804C0BCF1000F04D10A
:1029E00045F21D7CA4F800C0F1E7DFF8C4C0DCF8B4
:1029F0000010DFF8BC80D1F800C0C8F800C0C446A1
:102A0000BCF804C0ACF1010CA8F804C0C446BCF882
:102A100006C00CF1010CA8F806C0C446BCF808C0FA
:102A2000B8F80680C44507DADFF884C0BCF806C0F1
:102A3000DFF87C80A8F808C0B0F80AC0BCF1000F2D
:102A40000AD1016041604FF0010CA0F80AC04FF0BC
:102A5000000CC1F800C017E003F0100CBCF1000F2F
:102A600007D10668316001604FF0000CC1F800C06A
:102A700004E0D0F804C0C1F800C04160B0F80AC05A
:102A80000CF1010CA0F80AC0B0F80CC0B0F80A8034
:102A9000C44503DAB0F80AC0A0F80CC04D600A8142
:102AA000CF604FF0000CA4F800C000BF8FE700001B
:102AB000A88E00200021034A1160034A1180018082
:102AC000704700008C000020900000202DE9F041AC
:102AD00005460C4616461F461548006880F83460C7
:102AE00000201349096881F835003946104800680C
:102AF00000F00AFF6CB104F10808EC6001222946DD
:102B00000B48006800F016F82946404600F066F8C9
:102B100006E0002006490968C88705490968086376
:102B200003480168204600F019F8BDE8F081000074
:102B30000401002010B5C287016300230AE00024CD
:102B40004C600C600C614C610C83CC61886020315E
:102B50005C1CA3B29342F2DB10BD000030B548B15B
:102B60004568C1F8C45000F10804226893681D6AE2
:102B7000C56113E091F83450022D02D0072D08D121
:102B800003E007A5C1F8C45007E007A5C1F8C45089
:102B900003E008A5C1F8C45000BF00BF30BD00006D
:102BA0005461736B205100005461736B2053656D49
:102BB000000000002000000030B507A5C1F8C45097
:102BC00000F1080422681AB193681D6AC56101E02A
:102BD00001A5C56130BD000020000000F0B58E6881
:102BE00096F8375007893FB90127078100274F60C2
:102BF0000F600160416023E007897F1C0781026844
:102C000006E0946894F83770AF4200DD02E0526845
:102C1000002AF6D100BF32B900274F6043680B602D
:102C2000596041600CE017682FB9116000270F60F0
:102C30004A60016004E013680B604A6059601160EB
:102C4000F0BD2DE9F0410446256BE68F0AE0D5F88A
:102C50000C8008F108072946384600F00AF82035AC
:102C6000701E86B2002EF2DC0020E0872063BDE8F3
:102C7000F08110B50489012C03D100240460446064
:102C800011E00C6824B94A680024146002600AE06C
:102C90004C6824B90B6800245C60436003E00B6857
:102CA0004A685A6013600489641E048100244C60E1
:102CB0000C6010BD2DE9F84306460C4617469846B1
:102CC000089D94F83600082850D2DFE800F004058B
:102CD000080906072B2C00BF00BF00BF47E000BF5C
:102CE00094F83400032807D143463A46214630463B
:102CF000009500F03FF803E0E765A4F860802564E4
:102D000036B12046FFF79DFF21463046FFF754FFBE
:102D1000204600F0FDFF00203434A070607004F8FD
:102D2000340924E000BF94F83400032807D1434657
:102D30003A4621463046009500F01CF803E0E7656E
:102D4000A4F860802564204601F048FD36B1204695
:102D5000FFF777FF21463046FFF72EFF042034347B
:102D6000A0700020607004F8340900E000BF00BFCC
:102D7000BDE8F883F0B50446059E086BCD8F0AE0E8
:102D8000C768A74204D1046142610383C66104E0BD
:102D900020306F1EBDB2002DF2DC00BFF0BD000080
:102DA00070B50025074C03E005F12000C5B2241DD5
:102DB00020680028F8D02068FDF7E5F92844C5B25E
:102DC000284670BD38000020002004E00021034A9E
:102DD00042F82010401C0028F8D07047380000202E
:102DE00030B5420900F01F030121C3F11F04A140C7
:102DF000034C54F822400C43014D45F8224030BDAD
:102E00003800002030B5420900F01F030121C3F152
:102E10001F04A140034C54F822408C43014D45F857
:102E2000224030BD380000200021034A1160034ACF
:102E30001180018070470000980000209C00002055
:102E40002DE9F04F85B007468A4693461C46002080
:102E5000029000BF00BF00BFFDF78AF9029000BFDB
:102E6000FDF7DAFB00BF56480078401C5449087053
:102E700008460078012801D100F08AF900BFFDF76B
:102E8000E5FB00BF0298FDF777F900BF00BF00BF68
:102E900007F10806308900284CD104F0100010B961
:102EA0004FF0000801E04FF01008DDE90E01434645
:102EB0005A46CDE90001514607F12000FFF778FDA1
:102EC00000BF00BF00BFFDF753F9029000BFFDF740
:102ED000A3FB00BF3A480078401E394908700846F5
:102EE0000078D0B900F062F93648008800280BDD80
:102EF00000BFFDF7ABFB00BF0298FDF73DF900BF37
:102F000000BF00F017F911E000BFFDF79FFB00BF05
:102F10000298FDF731F900BF08E000BFFDF796FB0E
:102F200000BF0298FDF728F900BF00BF00BF05B041
:102F3000BDE8F08F04F4007008B1358900E0012588
:102F4000D6F8009011E0D9F808000390D9F80400F1
:102F500004900E985B465246009038460399FFF75E
:102F6000A9FEDDF81090681E85B2002DEBD100BFE0
:102F700000BF00BFFDF7FCF8029000BFFDF74CFB5F
:102F800000BF0F480078401E0D49087008460078C1
:102F900008B900F00BF900BFFDF758FB00BF02981D
:102FA000FDF7EAF800BF00BF00BF04F4004008B915
:102FB000FDF76CFE00210F98018000BFB7E700000D
:102FC000AC0000207000002000210AE001EB41026B
:102FD000054B03EB820000220281026042604A1C22
:102FE000D1B22029F2D37047B48E002010B5044628
:102FF00094F83700FFF7F4FE94F837000549097894
:10300000884203D1204600F027F802E0204600F075
:1030100003F810BD9200002010B590F8373003EB94
:1030200043030C4C04EB83010B893BB901230B8157
:103030000023C36003610860486009E00B895B1CE2
:103040000B810B68C360002303610A68106108608C
:1030500010BD0000B48E002010B590F8373003EB9F
:1030600043030B4C04EB83010B893BB901230B8118
:103070000023C36003610860486008E00B895B1CA3
:103080000B810023C3604A680261D060486010BDB4
:10309000B48E002010B501460C8924B1012C03D058
:1030A000022C0CD101E000BF14E008684A680261FC
:1030B0000024C4601461D0600A6048600AE00868B7
:1030C0004A68C36800241C61C4600261D0600B6060
:1030D000486000BF00BF10BD2DE9F041054695F8DE
:1030E000370000EB4000124901EB80042F69EE68C5
:1030F00087B946B9002020812060606095F83700CC
:10310000FFF780FE0EE02089401E20810020306104
:10311000266007E02089401E2081FE600EB96760AE
:1031200000E0376100202861E860BDE8F081000020
:10313000B48E002010B5002400BFFDF719F8044636
:1031400000BF00200D4908700D480E490860084670
:103150000068D0F89000401C0968C1F890000A4847
:103160000068401C084908604FF08050074908601B
:1031700000BF2046FDF700F800BF10BD93000020FF
:10318000E08D002008010020D800002004ED00E0C0
:1031900010B504480078012803D1FDF7CBFA0249A5
:1031A000086010BDAC000020A000002010B50A4847
:1031B000007880B9FDF7BEFA08490968441A084842
:1031C0000068A04201D20648046006480068A04298
:1031D00001D20448046010BDAC000020A000002013
:1031E000A4000020A800002070B505460026354840
:1031F0000078012800D070BD00BF00BFFCF7B8FF09
:10320000064600BFFDF708FA00BF2C684CB900BFA6
:10321000FDF71CFA00BF3046FCF7AEFF00BF00BF51
:10322000E9E72948844209D100BFFDF70FFA00BF42
:103230003046FCF7A1FF00BF00BFDCE7A06D10B176
:10324000A06D401EA065A06D48B100BFFDF7FEF95E
:1032500000BF3046FCF790FF00BF00BFCBE72889D6
:10326000022809DA00BFFDF7F1F900BF3046FCF78C
:1032700083FF00BF00BFBEE714480078002809DDC7
:1032800000BFFDF7E3F900BF3046FCF775FF00BF54
:1032900000BFB0E72846FFF7FDFE2C68606D18B947
:1032A0000B480068A06501E0606DA06500BFFDF7F8
:1032B000CDF900BF3046FCF75FFF00BF00BF00BF85
:1032C00099E70000B4000020188D0020AC00002019
:1032D000B00000200021034A1160034A11800180E0
:1032E00070470000B8000020BC0000202DE9FF5FFF
:1032F0000446884691461D460020019000BF00BF4D
:10330000FCF736FF019000BFFDF786F900BF04F11E
:1033100008073889002857D10420012804D0022842
:1033200016D004283AD127E0206AFF280FD100BF29
:10333000FDF78CF900BF0198FCF71EFF00BF00BF2E
:1033400046F6C5502880002004B0BDE8F09F26E076
:103350004FF6FF71206A88420DD100BFFDF776F964
:1033600000BF0198FCF708FF00BF00BF46F6C5503C
:1033700028800020E8E712E0206A401C68B900BFFE
:10338000FDF764F900BF0198FCF7F6FE00BF00BF2F
:1033900046F6C55028800020D6E700E000BF00BFF9
:1033A000206A401C2062D4F820A0C4F8249000BFFA
:1033B000FDF74CF900BF0198FCF7DEFE00BF00BF2F
:1033C000002028805046BFE700BF2D480078401CF1
:1033D0002B49087008460078012801D1FFF7D8FE74
:1033E00000BFFDF733F900BF0198FCF7C5FE00BF31
:1033F00000BF00BF08F4007008B13E8900E001265C
:10340000D7F800B011E0DBF808000290DBF8040008
:10341000039000231A46CDF8009020460299FFF74A
:1034200049FCDDF80CB0701E86B2002EEBD1D4F84A
:1034300020A000BF00BF00BFFCF79AFE019000BFB4
:10344000FDF7EAF800BF0E480078401E0C490870EE
:103450000846007808B9FFF7A9FE00BFFDF7F6F8A7
:1034600000BF0198FCF788FE00BF00BF00BF08F452
:10347000004008B9FDF70AFC00202880504663E7A9
:10348000AC00002086B00020009000BF06E0D949C3
:103490000968480001AA0021FEF710FCD648007810
:1034A0000128F4D101A8FDF73DFD0027D3480068AD
:1034B000D0490968884205D9D0480068CD490968D3
:1034C000B0FBF1F727B9CD4800680A21B0FBF1F74E
:1034D0008EE1FDF72FF98246FDF788F8C8490860AC
:1034E00000BF00BFFCF744FE009000BFFDF794F85A
:1034F00000BFC4480068C44908600020C149086092
:1035000000BFFDF7A3F800BF0098FCF735FE00BF31
:1035100000BFBE480068BC490968884248D9BB481A
:103520000068BB49884205D242F210700390012026
:10353000029023E0B5480068B649884205D24FF4AE
:103540007A7003900A20029018E0B0480068B249EF
:10355000884203D26420039002900FE0AB480068D9
:10356000AE49884205D20A2003904FF47A70029047
:1035700004E00120039042F210700290A348016819
:103580000298B1FBF0F9A049039809684843B0FBE1
:10359000F9F042F21071081AA1490880A148008888
:1035A0000988884208DA9E4800889E49088003E01E
:1035B00042F210709A490880FDF7E8FD002500BF2F
:1035C00000BFFCF7D5FD009000BFFDF725F800BF58
:1035D0009548046800BFFDF739F800BF0098FCF774
:1035E000CBFD00BF00BF72E000BF00BF00BFFCF713
:1035F000BFFD009000BFFDF70FF800BF8B480078BB
:10360000401C8A49087008460078012801D1FFF75C
:10361000BFFD00BFFDF71AF800BF0098FCF7ACFD36
:1036200000BF00BF00BF54F89C0F6060002044F84A
:103630009C0900BF00BF00BFFCF79AFD009000BFCF
:10364000FCF7EAFF00BF79480078401E7749087010
:1036500008460078D0B9FFF7A9FD75480088002812
:103660000BDD00BFFCF7F2FF00BF0098FCF784FD04
:1036700000BF00BFFFF75EFD11E000BFFCF7E6FFF3
:1036800000BF0098FCF778FD00BF08E000BFFCF722
:10369000DDFF00BF0098FCF76FFD00BF00BF00BF5B
:1036A000D4F8A000054400BF00BFFCF761FD009006
:1036B00000BFFCF7B1FF00BFD4F8C04000BFFCF76B
:1036C000C5FF00BF0098FCF757FD00BF00BF002CEE
:1036D0008AD145B34E48854205D242F2107005901A
:1036E0004FF0010B1BE04B48854205D24FF47A7036
:1036F00005904FF00A0B12E04748854203D2642040
:10370000059083460BE04548854204D20A20059087
:103710004FF47A7B03E00120059042F2107BB5FB69
:10372000FBF0049003E0002005900120049000BF0E
:1037300000BFFCF71DFD009000BFFCF76DFF00BF50
:103740003948046800BFFCF781FF00BF0098FCF710
:1037500013FD00BF00BF2FE0D4F8A0000599484337
:103760000499B0FBF1F086B242F21070864200D9A3
:103770000646A4F88C60B4F88E00B04201DAA4F8D2
:103780008E6001AB04F1AC02111D2046FEF742F938
:1037900000BF00BFFCF7ECFC009000BFFCF73CFF53
:1037A00000BFD4F8C04000BFFCF750FF00BF009836
:1037B000FCF7E2FC00BF00BF002CCDD11D48007813
:1037C000012805D100201B49087001A8FDF7AAFBBC
:1037D000FCF7B0FFA0EB0A0817480068404502D28A
:1037E0001548C0F8008001AA00213846FEF766FAA5
:1037F0006FE6000078510008D000002090510008CA
:1038000060000020C4000020CC000020C800002080
:10381000801A060000093D00005A62020084D71792
:10382000C0000020C2000020DC000020AC0000200E
:1038300070000020BE000020D400002010B58AB027
:10384000044600201F4908601F4908601F4908609E
:103850001F4908701F4908701F48006820B946F6C4
:103860002B6020800AB010BD1C4800681C49096804
:10387000884203D246F62C602080F3E7194800788E
:103880001F2803D346F62A602080EBE7032000219F
:103890000591CDE907040691084610490968124AC6
:1038A00012680D4B1B68CDE90132CDE903100D48BC
:1038B000007800230D4A0EA100901248FDF770FC1D
:1038C00000BFCFE7C4000020CC000020C8000020CB
:1038D000D0000020BE0000207C5100088451000868
:1038E0008C5100087451000880510008853400088C
:1038F00075432F4F532D4949492053746174205407
:1039000061736B003490002038B504460D4685B1D4
:103910006B4602222946204600F082FEBDF80000D8
:1039200018B9032084F8360006E0022084F8360037
:1039300002E0022084F836002046FFF7CDFB38BDB8
:103940000021C0F8BC100949096819B90021C0F864
:10395000C01007E005490968C0F8C01003490968AC
:10396000C1F8BC000149086070470000DC0000207D
:10397000D0F8BC20D0F8C0104AB90D4B196011B175
:103980000023C1F8BC300023C0F8C0300FE029B9D3
:103990000023C2F8C030C0F8BC3008E0C2F8C01044
:1039A000C1F8BC200023C0F8C030C0F8BC3070475C
:1039B000DC0000200021044A1160044A1180044AFE
:1039C0001160018070470000DC000020E000002052
:1039D000D800002070B5044600202060A060606020
:1039E000E06020616061A061E0612BA020620020A6
:1039F0006062A062E0622063E0872064E065A4F872
:103A00006000002104F16400FEF7CAFF002044F8C2
:103A1000740F6060E060A0822061743C002506E0C5
:103A2000002104F17C0040F82510681CC5B2002D6F
:103A3000F6D000203434206120676067606084F82D
:103A40005600E067A06720814FF0004060610020D1
:103A5000A061E06120626062A4F85800A4F85A00F6
:103A6000E0652066FCF766FE064666660020A066F6
:103A7000C4F88000C4F8840020706070A07020201A
:103A8000E0700020C4F88800C4F88C0004A0C4F8DA
:103A90009000343C70BD00003F5461736B00000027
:103AA000200000002DE9FC4704460F469046994649
:103AB000DDE90A654FF0000A00BF00BF00BFFCF758
:103AC00057FB824600BFFCF7A7FD00BF8D4800787A
:103AD000401C8C49087008460078012801D1FFF786
:103AE00057FB00BFFCF7B2FD00BF5046FCF744FB9C
:103AF00000BF00BF00BF0CB98348046800202880C5
:103B000094F8360008287CD2DFE800F00405484924
:103B100006074A4B00BF00BF00BF4B46424639462E
:103B200004F16400CDE90065FEF742FF00BF00BF6D
:103B300000BFFCF71DFB824600BFFCF76DFD00BF18
:103B400070480078401E6F49087008460078D0B968
:103B5000FFF72CFB6D48008800280BDD00BFFCF749
:103B600075FD00BF5046FCF707FB00BF00BFFFF725
:103B7000E1FA11E000BFFCF769FD00BF5046FCF719
:103B8000FBFA00BF08E000BFFCF760FD00BF504635
:103B9000FCF7F2FA00BF00BF00BFAFE000BF00BFFC
:103BA00000BF94F8340002282CD143463A462146FF
:103BB00000200096FFF77EF800BF00BF00BFFCF7B3
:103BC000D7FA824600BFFCF727FD00BF4D480078BA
:103BD000401E4C4908700846007808B9FFF7E6FA1D
:103BE00000BFFCF733FD00BF5046FCF7C5FA00BF2D
:103BF00000BF00BF09F40040002843D1FDF746F89C
:103C000040E040E04B464246394604F16400CDE9CD
:103C10000065FEF7CDFE00BF00BF00BFFCF7A8FAAD
:103C2000824600BFFCF7F8FC00BF36480078401E13
:103C30003449087008460078D0B9FFF7B7FA33481E
:103C4000008800280BDD00BFFCF700FD00BF5046D8
:103C5000FCF792FA00BF00BFFFF76CFA11E000BF5B
:103C6000FCF7F4FC00BF5046FCF786FA00BF08E002
:103C700000BFFCF7EBFC00BF5046FCF77DFA00BF2D
:103C800000BF00BF3AE000BF00BF00BFFCF770FA02
:103C9000824600BFFCF7C0FC00BF1A480078401EF7
:103CA0001849087008460078D0B9FFF77FFA17481E
:103CB000008800280BDD00BFFCF7C8FC00BF5046A1
:103CC000FCF75AFA00BF00BFFFF734FA11E000BF5B
:103CD000FCF7BCFC00BF5046FCF74EFA00BF08E002
:103CE00000BFFCF7B3FC00BF5046FCF745FA00BF2D
:103CF00000BF00BF46F62D60288000BF00BFBDE8B2
:103D0000FC870000AC0000200401002070000020AF
:103D100010B50446204600F061FD94F8360000F02E
:103D2000040010B92046FFF761F910BD70B50446D4
:103D30000D46002600BF00BFFCF71AFA064600BF7A
:103D4000FCF76AFC00BF0020288094F836000828A1
:103D50007ED2DFE800F00405060714566A8000BF33
:103D600000BF00BF00BFFCF771FC00BF3046FCF78E
:103D700003FA00BF00BF47F2531028808CE000BF59
:103D800048480078401C47490870084600780128D8
:103D900001D1FFF7FDF900BFFCF758FC00BF30462A
:103DA000FCF7EAF900BF00BF00BF14F88A0F401EFD
:103DB000207014F88A0928B9002084F836002046BB
:103DC000FFF7A6FF00BF00BF00BFFCF7D1F9064612
:103DD00000BFFCF721FC00BF32480078401E31498B
:103DE00008700846007808B9FFF7E0F900BFFCF753
:103DF0002DFC00BF3046FCF7BFF900BF00BF00BF7D
:103E00004AE014F88A0F401E207014F88A0910B98D
:103E1000012084F8360000BFFCF718FC00BF3046D4
:103E2000FCF7AAF900BF00BF36E014F88A0F401E65
:103E3000207014F88A0910B9022084F8360000BFF7
:103E4000FCF704FC00BF3046FCF796F900BF00E029
:103E500015E000BF20E014F88A0F401E207014F80F
:103E60008A0910B9032084F8360000BFFCF7EEFB86
:103E700000BF3046FCF780F900BF00BF0CE000BF78
:103E8000FCF7E4FB00BF3046FCF776F900BF00BF4B
:103E900046F62D60288070BD00BFFCF7F7FE00BF1E
:103EA000F9E70000AC00002008B504480068FDF701
:103EB0007DFC69460020FDF7C9FA08BD0401002019
:103EC0002DE9F8430446884617461D464FF0000981
:103ED00000BF00BF00BFFCF74BF9814600BFFCF7F5
:103EE0009BFB00BFFB480078401CFA49087008465D
:103EF0000078012801D1FFF74BF900BFFCF7A6FBC2
:103F000000BF4846FCF738F900BF00BF00BF0CB93E
:103F1000F148046827640020288094F836000828B7
:103F20007AD2DFE800F00405FEFD0607FCFB00BFC7
:103F300000BF00BF0420012804D0022843D0042879
:103F40006BD184E0606CFF283CD100BF00BF00BF94
:103F5000FCF70EF9814600BFFCF75EFB00BFDD48B1
:103F60000078401EDB49087008460078D0B9FFF79A
:103F70001DF9DA48008800280BDD00BFFCF766FB5E
:103F800000BF4846FCF7F8F800BF00BFFFF7D2F8C3
:103F900011E000BFFCF75AFB00BF4846FCF7ECF805
:103FA00000BF08E000BFFCF751FB00BF4846FCF72C
:103FB000E3F800BF00BF00BF46F6C55028800020D0
:103FC000BDE8F88385E04FF6FF71606C88423DD113
:103FD00000BF00BF00BFFCF7CBF8814600BFFCF775
:103FE0001BFB00BFBB480078401EBA49087008465A
:103FF0000078E0B9FFF7DAF8B848008800280DDD4E
:1040000000BFFCF723FB00BF4846FCF7B5F800BF34
:1040100000BFFFF78FF813E0E2E159E000BFFCF7C3
:1040200015FB00BF4846FCF7A7F800BF08E000BF3B
:10403000FCF70CFB00BF4846FCF79EF800BF00BF32
:1040400000BF46F6C55028800020B9E741E0606C0B
:10405000401CD8BB00BF00BF00BFFCF789F88146F9
:1040600000BFFCF7D9FA00BF9A480078401E994972
:10407000087008460078D0B9FFF798F8974800888C
:1040800000280BDD00BFFCF7E1FA00BF4846FCF753
:1040900073F800BF00BFFFF74DF811E000BFFCF759
:1040A000D5FA00BF4846FCF767F800BF08E000BF3C
:1040B000FCF7CCFA00BF4846FCF75EF800BF00BF33
:1040C00000BF46F6C5502880002079E7FFE700E0F2
:1040D00000BF00BF606C401C6064666C00BF00BF26
:1040E00000BFFCF745F8814600BFFCF795FA00BF1A
:1040F00078480078401E7749087008460078F8B97B
:10410000FFF754F875480088002810DD00BFFCF761
:104110009DFA00BF4846FCF72FF803E01EE01CE0C4
:104120001AE018E000BF00BFFFF704F811E000BF7D
:10413000FCF78CFA00BF4846FCF71EF800BF08E009
:1041400000BFFCF783FA00BF4846FCF715F800BF34
:1041500000BF00BF80E100BF00BF00BF94F8340083
:1041600007282CD100231A46214618460097FEF74F
:10417000A1FD666C00BF00BF00BFFBF7F9FF8146E1
:1041800000BFFCF749FA00BF52480078401E514971
:1041900008700846007808B9FFF708F800BFFCF778
:1041A00055FA00BF4846FBF7E7FF00BF00BF00BF5E
:1041B00008F40040002801D1FCF768FD0FE104205D
:1041C000012804D0022842D0042872D189E0606C12
:1041D000FF283BD100BF00BF00BFFBF7C9FF8146EE
:1041E00000BFFCF719FA00BF3A480078401E394971
:1041F000087008460078D0B9FEF7D8FF3748008825
:1042000000280BDD00BFFCF721FA00BF4846FBF792
:10421000B3FF00BF00BFFEF78DFF11E000BFFCF74A
:1042200015FA00BF4846FBF7A7FF00BF08E000BF34
:10423000FCF70CFA00BF4846FBF79EFF00BF00BF2B
:1042400000BF46F6C55028800020B9E68BE04FF647
:10425000FF71606C884243D100BF00BF00BFFBF715
:1042600087FF814600BFFCF7D7F900BF19480078E7
:10427000401E1849087008460078D8B9FEF796FF26
:104280001648008800280BDD00BFFCF7DFF900BFEF
:104290004846FBF771FF00BF00BFFEF74BFF12E07F
:1042A00000BFFCF7D3F900BF4846FBF765FF00BF2E
:1042B00009E057E000BFFCF7C9F900BF4846FBF72B
:1042C0005BFF00BF00BF00BF46F6C550288000203E
:1042D00076E60000AC000020040100207000002001
:1042E00041E0606C401CD8BB00BF00BF00BFFBF7C3
:1042F0003FFF814600BFFCF78FF900BF58480078A8
:10430000401E5749087008460078D0B9FEF74EFFA6
:104310005448008800280BDD00BFFCF797F900BF68
:104320004846FBF729FF00BF00BFFEF703FF11E07F
:1043300000BFFCF78BF900BF4846FBF71DFF00BF2D
:1043400008E000BFFCF782F900BF4846FBF714FF06
:1043500000BF00BF00BF46F6C550288000202FE6F2
:10436000FFE700E000BF00BF606C401C6064666C4B
:1043700000BF00BF00BFFBF7FBFE814600BFFCF79C
:104380004BF900BF36480078401E35490870084692
:104390000078D0B9FEF70AFF3248008800280BDD0C
:1043A00000BFFCF753F900BF4846FBF7E5FE00BF2E
:1043B00000BFFEF7BFFE11E000BFFCF747F900BFEA
:1043C0004846FBF7D9FE00BF08E000BFFCF73EF906
:1043D00000BF4846FBF7D0FE00BF00BF00BF3BE078
:1043E00000BF00BF00BFFBF7C3FE814600BFFCF764
:1043F00013F900BF1A480078401E19490870084692
:104400000078D0B9FEF7D2FE1648008800280BDDF0
:1044100000BFFCF71BF900BF4846FBF7ADFE00BF2D
:1044200000BFFEF787FE11E000BFFCF70FF900BFE9
:104430004846FBF7A1FE00BF08E000BFFCF706F905
:1044400000BF4846FBF798FE00BF00BF00BF46F61E
:104450002D602880002600BF00BF3046B0E5000078
:10446000AC0000207000002070B504460D46002608
:1044700000BF00BFFBF77CFE064600BFFCF7CCF890
:1044800000BF0CB95A48046859480068844210D1EA
:104490005848007800280CDD00BFFCF7D7F800BFB3
:1044A0003046FBF769FE00BF00BF46F66350288028
:1044B00070BD0020288094F83600082873D2DFE809
:1044C00000F0044252627374757600BF4948007868
:1044D000401C4849087008460078012801D1FEF7C1
:1044E00057FE00BFFCF7B2F800BF3046FBF744FEB2
:1044F00000BF00BF00BF042084F83600012084F80C
:104500008A002046FEF7E8FD00BF00BF00BFFBF7B2
:104510002FFE064600BFFCF77FF800BF3548007845
:10452000401E344908700846007808B9FEF73EFE80
:1045300000BFFCF78BF800BF3046FBF71DFE00BF45
:1045400000BF00BF4FE0052084F83600012084F84A
:104550008A0000BFFCF77AF800BF3046FBF70CFE7C
:1045600000BF00BF3FE0062084F83600012084F839
:104570008A0000BFFCF76AF800BF3046FBF7FCFD7D
:1045800000BF00BF2FE0072084F83600012084F828
:104590008A0000BFFCF75AF800BF3046FBF7ECFD7D
:1045A00000BF00BF1FE011E000BF00BF00BF94F8D4
:1045B0008A00401C84F88A0000BFFCF747F800BF5F
:1045C0003046FBF7D9FD00BF00BF0CE000BFFCF791
:1045D0003DF800BF3046FBF7CFFD00BF00BF46F6F9
:1045E0002D60288064E700BFFCF750FB00BF5FE749
:1045F00004010020AC000020002108E0064A02EB84
:10460000C100002202608280C2804A1C91B2034A2B
:1046100012889142F2DB7047088A0020A8510008F6
:104620002DE9F04F0C4616461D46042E1ED1DFF82C
:10463000A091D9F80090A4EB0909A9F1010313F5A1
:10464000803F0DD94FF00009C0F84C90C0F8509051
:10465000C0F81C9047F27E29A5F80090BDE8F08FC5
:10466000C46403F10109C0F850903FE084B3082E00
:1046700025D1D0F8489009EB0407DFF85491D9F818
:104680000090A7EB0909A9F10103A34201D2C76475
:1046900006E0DFF83C91D9F80090A144C0F84C90B6
:1046A000DFF82CA1D0F84C90DAF800A0A9EB0A09A9
:1046B000C0F85090D0F84C90C0F8489016E0DFF861
:1046C0001091D9F80090A144C0F84C9004650DE019
:1046D000FFE74FF00009C0F84C90C0F85090C0F8C8
:1046E0001C9047F27E29A5F80090B7E7DFF8E4A018
:1046F000BAF800A0D0F84C90B9FBFAFB0AFB1B9962
:104700001FFA89F8DFF8D09009EBC802B2F80490DC
:10471000B9F1000F0BD14FF00009C0F81490C0F8A8
:10472000189010604FF00109A2F804903EE0116863
:1047300034E0DFF89CA0D1F84C90DAF800A0A9EBA7
:104740000A09C1F85090D0F85090D1F850A0D14546
:104750000ED9D1F81490B9F1000F01D049691DE0CC
:104760004FF00009C0F8149081614861002115E004
:10477000D1F81890B9F1000F07D14FF00009C0F837
:10478000189041618861106007E0D1F818C0C0F846
:1047900018C04161CCF81400886100210029C8D1FB
:1047A000B2F8049009F10109A2F80490B2F8069059
:1047B000B2F804A0D14503DAB2F80490A2F806904A
:1047C000C2614FF00009A5F8009000BF46E7000065
:1047D000E4000020A8510008088A002010B5C26932
:1047E000BAB1002404651468844205D1416911609E
:1047F00039B100248C6104E0816943694B6103B1E4
:104800009961002444618461C461C4649488641E15
:10481000948010BD002006E0054A02EBC001002292
:10482000CA80421C90B2034A12889042F4DB70475F
:10483000088A0020A85100082DE9F05F4FF0000B16
:1048400000BF00BF00BFFBF793FC834600BFFBF730
:10485000E3FE00BF7A480078401C7949087008469A
:104860000078012801D1FEF793FC00BFFBF7EEFEB4
:1048700000BF5846FBF780FC00BF00BF00BFFBF73E
:1048800059FF05466F480068401C6E49086008469D
:1048900000686D490988B0FBF1F201FB12001FFAB4
:1048A00080FA6A4800EBCA08D8F80040002782E086
:1048B000002C7FD0D4F8149094F83600082875D2D4
:1048C000DFE800F00408051B063D075000BF00BFED
:1048D00000BF6CE05B49E06C0968401A20655949EB
:1048E000E06C0968884206D1002084F83600204632
:1048F000FFF70EFA00E0012759E05249E06C096821
:10490000401A20654F49E06C0968884215D10020A3
:10491000E065A4F86000FBF70DFF20642046FEF779
:1049200090F92046FFF7F4F900203434A0700320FA
:104930006070002004F8340900E0012737E04149A5
:10494000E06C0968401A20653E49E06C09688842BD
:1049500006D1042084F836002046FFF73FFF00E030
:10496000012724E03749E06C0968401A2065354981
:10497000E06C0968884217D10020E065A4F8600067
:10498000FBF7D8FE20642046FEF75BF92046FFF7D0
:1049900025FF04203434A07003206070002004F848
:1049A000340902E006E001E0012700E000BF00BF9B
:1049B0004C4600E00127002F3FF47AAFFBF7BAFE28
:1049C000461B23480068B04201D22148066000BF60
:1049D00000BF00BFFBF7CCFB834600BFFBF71CFE0C
:1049E00000BF17480078401E154908700846007837
:1049F000D0B9FEF7DBFB1748008800280BDD00BFAD
:104A0000FBF724FE00BF5846FBF7B6FB00BF00BF14
:104A1000FEF790FB11E000BFFBF718FE00BF584601
:104A2000FBF7AAFB00BF08E000BFFBF70FFE00BFCB
:104A30005846FBF7A1FB00BF00BF00BFBDE8F09FD9
:104A4000AC000020E4000020A8510008088A0020E3
:104A5000E8000020700000201CB500BF0EE001AB94
:104A60006A4600210846FCF7ADFEBDF8040028B9EF
:104A700003480078012801D1FFF7DEFEEFE70000D0
:104A80006400002010B58AB0044600201D4908606B
:104A90001D490860FFF7B0FD1C48006820B947F2C7
:104AA000122020800AB010BD194800681949096811
:104AB000884203D247F213202080F3E7164800789B
:104AC0001F2803D347F211202080EBE70B200021A1
:104AD00005910A46CDE9070406910D4800680F4983
:104AE00009680A4B1B68CDE90131CDE903020A4888
:104AF000007800230A4A0BA100900F48FCF750FBF6
:104B000000BFCFE7E4000020E80000209851000833
:104B1000A05100088C510008945100089C510008D5
:104B2000594A000875432F4F532D4949492054696C
:104B3000636B205461736B00FC90002070B58AB0E9
:104B400004460020314908603148006840B13148CE
:104B500000682F490968B0FBF1F02F49086006E0B2
:104B60002C4800680A21B0FBF1F02B4908602A4864
:104B700000682A490860002029490860294908601E
:104B8000002508E0284800EBC5060020B080F08032
:104B90003060681C85B2254800888542F2DB2448D5
:104BA000006820B947F2473020800AB070BD214824
:104BB000006821490968884203D247F248302080C2
:104BC000F3E71E4800781F2803D347F246302080C1
:104BD000EBE70B2000210591CDE90704069108467B
:104BE00014490968164A1268114B1B68CDE9013255
:104BF000CDE90310114800780023124A12A1009059
:104C00001748FCF7CDFA00BFCFE70000EC0000200A
:104C1000B451000890510008FC0000200001002061
:104C2000F8000020F4000020908C0020C8510008FB
:104C3000B8510008C05100088C510008B05100085C
:104C4000BC510008594D000875432F4F532D494959
:104C5000492054696D6572205461736B0000000037
:104C6000C4910020F0B50C46022680F82A60012C81
:104C700005D12D4F466A3F683E4486610CE0066AC6
:104C80002EB9294F466A3F683E44866104E0264FAC
:104C9000066A3F683E448661244F3F888669B6FBBA
:104CA000F7FC07FB1C66B5B2214E06EBC502166881
:104CB00036B90026066146611060012696802CE018
:104CC000194F86693F68F61BC661116820E0164FD0
:104CD0008E693F68F61BCE61C669CF69BE4209D9AD
:104CE0000E690EB1096913E0002606614161086191
:104CF00000210DE04E692EB9002646610161486130
:104D0000106004E04B694361016118614861002152
:104D10000029DCD19688761C9680D6889788BE427A
:104D200001DA9688D680F0BDF8000020C85100084E
:104D3000908C0020002006E0054A02EBC001002212
:104D4000CA80421C90B2034A12889042F4DB70473A
:104D5000908C0020C85100081CB500BF53E001AB87
:104D60006A4600210846FCF72DFD01A8FBF7E2FF8B
:104D7000FBF7E0FC064624480068401C2249086016
:104D80000846006821490988B0FBF1F201FB1200D6
:104D90001FFA80FA1E4800EBCA08D8F800404FF00E
:104DA000000B21E0F4B1D4F810901749A06909680C
:104DB000884214D1204600F02FF8208D022804D11B
:104DC00001212046FFF74EFF02E0032084F82A006D
:104DD000A56815B12046E168A8474C4604E04FF0AD
:104DE000010B01E04FF0010BBBF1000FDAD0FBF734
:104DF000A1FC871B01A8FCF711F806480068B8421F
:104E000001D204480760AAE7F8000020C851000852
:104E1000908C0020F4000020F0B5114E3688856992
:104E2000B5FBF6F706FB1755ACB20E4D05EBC40209
:104E30001568854205D10169116039B100254D61C0
:104E400004E0416903690B6103B15961012580F8F0
:104E50002A5000250561456195886D1E9580F0BD3D
:104E6000C8510008908C002029B1064A926902437B
:104E7000044B9A6104E0034A92698243014B9A61B0
:104E8000704700000010024030B5002100220024CD
:104E900000232D4D6D6805F00C0121B1042905D0CA
:104EA000082923D105E0294D056022E0274D056042
:104EB0001FE0254D6D6805F47012234D6D6805F4F3
:104EC0008034022505EB92421CB9214D5543056003
:104ED0000BE01D4D6D6805F400351DB11C4D5543AB
:104EE000056002E0194D5543056002E0174D05606D
:104EF00000BF00BF144D6D6805F0F0010909154DA4
:104F00006B5C0568DD4045600F4D6D6805F4E06140
:104F1000090A104D6B5C4568DD4085600A4D6D687F
:104F200005F46051C90A0B4D6B5C4568DD40C560F6
:104F3000054D6D6805F44041890B074D6B5CC568F4
:104F4000B5FBF3F5056130BD0010024000127A0098
:104F500000093D000000002010000020704710B53F
:104F600000F002F810BD00000CB500200190009088
:104F70003348006840F480303149086000BF304851
:104F8000006800F4003000900198401C01900098E7
:104F900018B90198B0F5A06FF1D12948006800F464
:104FA000003010B10120009001E000200090009836
:104FB000012843D12348006840F0100021490860CF
:104FC0000846006820F0030008600846006840F0CA
:104FD000020008601A48406819494860084640685D
:104FE00048600846406840F4806048600846406871
:104FF00020F47C1048600846406840F4E81048609F
:105000000846006840F08070086000BF0C480068E7
:1050100000F000700028F9D00948406820F0030033
:10502000074948600846406840F00200486000BFF9
:105030000348406800F00C000828F9D10CBD0000BE
:10504000001002400020024010B51348006840F0F4
:1050500001001149086008464068104908400E499F
:105060004860084600680E4908400B490860084639
:10507000006820F4802008600846406820F4FE00A4
:1050800048604FF41F008860FFF769FF4FF0006031
:105090000449086010BD0000001002400000FFF845
:1050A000FFFFF6FE08ED00E000BFFEE702E008C8E3
:1050B000121F08C1002AFAD170477047002001E092
:1050C00001C1121F002AFBD17047000000B589B052
:1050D0000F48FBF787FC0E48032100220592CDE91B
:1050E00006210890052080210C220A4BCDE90132CF
:1050F000CDE9031002200023074A08A100900B48C5
:10510000FCF74EF80248FBF7D9FE002009B000BDBD
:1051100014000020100100208D030008417070541D
:1051200061736B5374617274544342001009002020
:10513000887800200C0000008000000000020000C1
:10514000887A00200A00000040010000C87B00208F
:105150000C0000008000000000020000C87D00205C
:105160008000000000020000640000004006000013
:10517000C87F00200B0000000A0000000886002005
:105180000C00000080000000000200004000000051
:10519000E803000001000000088800200C00000067
:1051A00080000000000200001100000088000000E4
:1051B0000B0000000A000000908A00200C00000094
:1051C00080000000000200001100000088000000C4
:1051D0009014000001010100785634120101000012
:1051E00000000000000000000000000000000000BF
:1051F00000000000000000000000000000000000AF
:10520000000000000000000001010100280004006F
:10521000200001000000000000000000000000006D
:10522000000000000000000000000000000000007E
:105230000000000001002000010010000C00100020
:10524000000000000000000000000000000000005E
:10525000000000000000000000000000000000004E
:10526000000000000000000000000000010101003B
:105270002C00010120000C0020002000040004008C
:10528000000000000000000000000000000000001E
:10529000000000000000000000000000000000000E
:1052A00000000000000000000000000000000000FE
:1052B00001010101300001000000000000000000B9
:1052C00000000000000000000000000000000000DE
:1052D00000000000000000000000000000000000CE
:1052E0000101010128000C008001000004010101FE
:1052F0000101010101000101C800080001010000D5
:10530000000000000000000000000000000000009D
:10531000000000000000000000000000000000008D
:10532000000000000000000000000000000000007D
:10533000000000000101340008005D762A0600002C
:10534000605300080000002010010000AC5000086D
:10535000705400081001002080950000BC50000827
:10536000000000000102030401020304060708090B
:105370000204060800000000000000000000000019
:10538000000000000000000000000000000000001D
:10539000000000000000000000000000000000000D
:1053A00000000000000000000000000000000000FD
:1053B00000000000000000000000000000000000ED
:1053C00000000000000000000000000000000000DD
:1053D00000000000000000000000000000000000CD
:1053E00000000000000000000000000000000000BD
:1053F00000000000000000000000000000000000AD
:10540000000000000000000000000000000000009C
:10541000000000000000000000000000000000008C
:10542000000000000000000000000000000000007C
:10543000000000000000000000000000000000006C
:10544000000000000000000000000000000000005C
:10545000000000000000000000000000000000004C
:10546000000000000000000000000000000000003C
:0400000508000131BD
:00000001FF
